{
  "contractName": "StarNotary",
  "abi": [
    {
      "constant": true,
      "inputs": [
        {
          "name": "",
          "type": "uint256"
        }
      ],
      "name": "starsForSale",
      "outputs": [
        {
          "name": "",
          "type": "uint256"
        }
      ],
      "payable": false,
      "stateMutability": "view",
      "type": "function"
    },
    {
      "constant": true,
      "inputs": [
        {
          "name": "_tokenId",
          "type": "uint256"
        }
      ],
      "name": "getApproved",
      "outputs": [
        {
          "name": "",
          "type": "address"
        }
      ],
      "payable": false,
      "stateMutability": "view",
      "type": "function"
    },
    {
      "constant": false,
      "inputs": [
        {
          "name": "_approved",
          "type": "address"
        },
        {
          "name": "_tokenId",
          "type": "uint256"
        }
      ],
      "name": "approve",
      "outputs": [],
      "payable": true,
      "stateMutability": "payable",
      "type": "function"
    },
    {
      "constant": true,
      "inputs": [
        {
          "name": "",
          "type": "uint256"
        }
      ],
      "name": "tokenIdToStarInfo",
      "outputs": [
        {
          "name": "name",
          "type": "string"
        },
        {
          "name": "starStory",
          "type": "string"
        },
        {
          "name": "ra",
          "type": "string"
        },
        {
          "name": "dec",
          "type": "string"
        },
        {
          "name": "mag",
          "type": "string"
        }
      ],
      "payable": false,
      "stateMutability": "view",
      "type": "function"
    },
    {
      "constant": false,
      "inputs": [
        {
          "name": "_from",
          "type": "address"
        },
        {
          "name": "_to",
          "type": "address"
        },
        {
          "name": "_tokenId",
          "type": "uint256"
        }
      ],
      "name": "transferFrom",
      "outputs": [],
      "payable": true,
      "stateMutability": "payable",
      "type": "function"
    },
    {
      "constant": false,
      "inputs": [
        {
          "name": "_from",
          "type": "address"
        },
        {
          "name": "_to",
          "type": "address"
        },
        {
          "name": "_tokenId",
          "type": "uint256"
        }
      ],
      "name": "safeTransferFrom",
      "outputs": [],
      "payable": true,
      "stateMutability": "payable",
      "type": "function"
    },
    {
      "constant": true,
      "inputs": [
        {
          "name": "_tokenId",
          "type": "uint256"
        }
      ],
      "name": "ownerOf",
      "outputs": [
        {
          "name": "",
          "type": "address"
        }
      ],
      "payable": false,
      "stateMutability": "view",
      "type": "function"
    },
    {
      "constant": true,
      "inputs": [
        {
          "name": "_owner",
          "type": "address"
        }
      ],
      "name": "balanceOf",
      "outputs": [
        {
          "name": "",
          "type": "uint256"
        }
      ],
      "payable": false,
      "stateMutability": "view",
      "type": "function"
    },
    {
      "constant": false,
      "inputs": [
        {
          "name": "_tokenId",
          "type": "uint256"
        }
      ],
      "name": "mint",
      "outputs": [],
      "payable": false,
      "stateMutability": "nonpayable",
      "type": "function"
    },
    {
      "constant": false,
      "inputs": [
        {
          "name": "_operator",
          "type": "address"
        },
        {
          "name": "_approved",
          "type": "bool"
        }
      ],
      "name": "setApprovalForAll",
      "outputs": [],
      "payable": false,
      "stateMutability": "nonpayable",
      "type": "function"
    },
    {
      "constant": false,
      "inputs": [
        {
          "name": "_from",
          "type": "address"
        },
        {
          "name": "_to",
          "type": "address"
        },
        {
          "name": "_tokenId",
          "type": "uint256"
        },
        {
          "name": "data",
          "type": "bytes"
        }
      ],
      "name": "safeTransferFrom",
      "outputs": [],
      "payable": true,
      "stateMutability": "payable",
      "type": "function"
    },
    {
      "constant": true,
      "inputs": [
        {
          "name": "",
          "type": "bytes32"
        }
      ],
      "name": "starsRegistry",
      "outputs": [
        {
          "name": "",
          "type": "bool"
        }
      ],
      "payable": false,
      "stateMutability": "view",
      "type": "function"
    },
    {
      "constant": true,
      "inputs": [
        {
          "name": "_owner",
          "type": "address"
        },
        {
          "name": "_operator",
          "type": "address"
        }
      ],
      "name": "isApprovedForAll",
      "outputs": [
        {
          "name": "",
          "type": "bool"
        }
      ],
      "payable": false,
      "stateMutability": "view",
      "type": "function"
    },
    {
      "anonymous": false,
      "inputs": [
        {
          "indexed": true,
          "name": "_from",
          "type": "address"
        },
        {
          "indexed": true,
          "name": "_to",
          "type": "address"
        },
        {
          "indexed": true,
          "name": "_tokenId",
          "type": "uint256"
        }
      ],
      "name": "Transfer",
      "type": "event"
    },
    {
      "anonymous": false,
      "inputs": [
        {
          "indexed": true,
          "name": "_owner",
          "type": "address"
        },
        {
          "indexed": true,
          "name": "_approved",
          "type": "address"
        },
        {
          "indexed": true,
          "name": "_tokenId",
          "type": "uint256"
        }
      ],
      "name": "Approval",
      "type": "event"
    },
    {
      "anonymous": false,
      "inputs": [
        {
          "indexed": true,
          "name": "_owner",
          "type": "address"
        },
        {
          "indexed": true,
          "name": "_operator",
          "type": "address"
        },
        {
          "indexed": false,
          "name": "_approved",
          "type": "bool"
        }
      ],
      "name": "ApprovalForAll",
      "type": "event"
    },
    {
      "constant": false,
      "inputs": [
        {
          "name": "_name",
          "type": "string"
        },
        {
          "name": "_story",
          "type": "string"
        },
        {
          "name": "_Dec",
          "type": "string"
        },
        {
          "name": "_Mag",
          "type": "string"
        },
        {
          "name": "_Cent",
          "type": "string"
        },
        {
          "name": "_tokenId",
          "type": "uint256"
        }
      ],
      "name": "createStar",
      "outputs": [],
      "payable": false,
      "stateMutability": "nonpayable",
      "type": "function"
    },
    {
      "constant": true,
      "inputs": [
        {
          "name": "_Dec",
          "type": "string"
        },
        {
          "name": "_Mag",
          "type": "string"
        },
        {
          "name": "_Cent",
          "type": "string"
        }
      ],
      "name": "checkIfStarIsUnique",
      "outputs": [
        {
          "name": "",
          "type": "bool"
        }
      ],
      "payable": false,
      "stateMutability": "view",
      "type": "function"
    },
    {
      "constant": false,
      "inputs": [
        {
          "name": "_tokenId",
          "type": "uint256"
        },
        {
          "name": "_price",
          "type": "uint256"
        }
      ],
      "name": "putStarUpForSale",
      "outputs": [],
      "payable": false,
      "stateMutability": "nonpayable",
      "type": "function"
    },
    {
      "constant": false,
      "inputs": [
        {
          "name": "_tokenId",
          "type": "uint256"
        }
      ],
      "name": "buyStar",
      "outputs": [],
      "payable": true,
      "stateMutability": "payable",
      "type": "function"
    }
  ],
  "bytecode": "0x608060405234801561001057600080fd5b5061227e806100206000396000f3006080604052600436106100f1576000357c0100000000000000000000000000000000000000000000000000000000900463ffffffff1680630564b130146100f6578063081812fc14610137578063095ea7b3146101a45780631967fd98146101e457806323b872dd1461043a5780632f1c34ef1461049a578063316a4361146104ba57806342842e0e146104f15780636352211e1461055157806370a08231146105be578063a0712d6814610615578063a22cb46514610642578063b250ced014610691578063b88d4fde1461081c578063e0d06e4f14610894578063e985e9c5146108dd578063ff1bba0e14610958575b600080fd5b34801561010257600080fd5b5061012160048036038101908080359060200190929190505050610a65565b6040518082815260200191505060405180910390f35b34801561014357600080fd5b5061016260048036038101908080359060200190929190505050610a7d565b604051808273ffffffffffffffffffffffffffffffffffffffff1673ffffffffffffffffffffffffffffffffffffffff16815260200191505060405180910390f35b6101e2600480360381019080803573ffffffffffffffffffffffffffffffffffffffff16906020019092919080359060200190929190505050610aba565b005b3480156101f057600080fd5b5061020f60048036038101908080359060200190929190505050610bd7565b60405180806020018060200180602001806020018060200186810386528b818151815260200191508051906020019080838360005b8381101561025f578082015181840152602081019050610244565b50505050905090810190601f16801561028c5780820380516001836020036101000a031916815260200191505b5086810385528a818151815260200191508051906020019080838360005b838110156102c55780820151818401526020810190506102aa565b50505050905090810190601f1680156102f25780820380516001836020036101000a031916815260200191505b50868103845289818151815260200191508051906020019080838360005b8381101561032b578082015181840152602081019050610310565b50505050905090810190601f1680156103585780820380516001836020036101000a031916815260200191505b50868103835288818151815260200191508051906020019080838360005b83811015610391578082015181840152602081019050610376565b50505050905090810190601f1680156103be5780820380516001836020036101000a031916815260200191505b50868103825287818151815260200191508051906020019080838360005b838110156103f75780820151818401526020810190506103dc565b50505050905090810190601f1680156104245780820380516001836020036101000a031916815260200191505b509a505050505050505050505060405180910390f35b610498600480360381019080803573ffffffffffffffffffffffffffffffffffffffff169060200190929190803573ffffffffffffffffffffffffffffffffffffffff16906020019092919080359060200190929190505050610f05565b005b6104b860048036038101908080359060200190929190505050611006565b005b3480156104c657600080fd5b506104ef60048036038101908080359060200190929190803590602001909291905050506112a6565b005b61054f600480360381019080803573ffffffffffffffffffffffffffffffffffffffff169060200190929190803573ffffffffffffffffffffffffffffffffffffffff16906020019092919080359060200190929190505050611434565b005b34801561055d57600080fd5b5061057c60048036038101908080359060200190929190505050611439565b604051808273ffffffffffffffffffffffffffffffffffffffff1673ffffffffffffffffffffffffffffffffffffffff16815260200191505060405180910390f35b3480156105ca57600080fd5b506105ff600480360381019080803573ffffffffffffffffffffffffffffffffffffffff169060200190929190505050611475565b6040518082815260200191505060405180910390f35b34801561062157600080fd5b5061064060048036038101908080359060200190929190505050611588565b005b34801561064e57600080fd5b5061068f600480360381019080803573ffffffffffffffffffffffffffffffffffffffff169060200190929190803515159060200190929190505050611781565b005b34801561069d57600080fd5b5061081a600480360381019080803590602001908201803590602001908080601f0160208091040260200160405190810160405280939291908181526020018383808284378201915050505050509192919290803590602001908201803590602001908080601f0160208091040260200160405190810160405280939291908181526020018383808284378201915050505050509192919290803590602001908201803590602001908080601f0160208091040260200160405190810160405280939291908181526020018383808284378201915050505050509192919290803590602001908201803590602001908080601f0160208091040260200160405190810160405280939291908181526020018383808284378201915050505050509192919290803590602001908201803590602001908080601f016020809104026020016040519081016040528093929190818152602001838380828437820191505050505050919291929080359060200190929190505050611882565b005b610892600480360381019080803573ffffffffffffffffffffffffffffffffffffffff169060200190929190803573ffffffffffffffffffffffffffffffffffffffff16906020019092919080359060200190929190803590602001908201803590602001919091929391929390505050611da4565b005b3480156108a057600080fd5b506108c36004803603810190808035600019169060200190929190505050611dab565b604051808215151515815260200191505060405180910390f35b3480156108e957600080fd5b5061093e600480360381019080803573ffffffffffffffffffffffffffffffffffffffff169060200190929190803573ffffffffffffffffffffffffffffffffffffffff169060200190929190505050611dcb565b604051808215151515815260200191505060405180910390f35b34801561096457600080fd5b50610a4b600480360381019080803590602001908201803590602001908080601f0160208091040260200160405190810160405280939291908181526020018383808284378201915050505050509192919290803590602001908201803590602001908080601f0160208091040260200160405190810160405280939291908181526020018383808284378201915050505050509192919290803590602001908201803590602001908080601f0160208091040260200160405190810160405280939291908181526020018383808284378201915050505050509192919290505050611e5f565b604051808215151515815260200191505060405180910390f35b60066020528060005260406000206000915090505481565b60006002600083815260200190815260200160002060009054906101000a900473ffffffffffffffffffffffffffffffffffffffff169050919050565b3373ffffffffffffffffffffffffffffffffffffffff1660008083815260200190815260200160002060009054906101000a900473ffffffffffffffffffffffffffffffffffffffff1673ffffffffffffffffffffffffffffffffffffffff16141515610b2657600080fd5b816002600083815260200190815260200160002060006101000a81548173ffffffffffffffffffffffffffffffffffffffff021916908373ffffffffffffffffffffffffffffffffffffffff160217905550808273ffffffffffffffffffffffffffffffffffffffff163373ffffffffffffffffffffffffffffffffffffffff167f8c5be1e5ebec7d5bd14f71427d1e84f3dd0314c0f7b2291e5b200ac8c7c3b92560405160405180910390a45050565b6005602052806000526040600020600091509050806000018054600181600116156101000203166002900480601f016020809104026020016040519081016040528092919081815260200182805460018160011615610100020316600290048015610c835780601f10610c5857610100808354040283529160200191610c83565b820191906000526020600020905b815481529060010190602001808311610c6657829003601f168201915b505050505090806001018054600181600116156101000203166002900480601f016020809104026020016040519081016040528092919081815260200182805460018160011615610100020316600290048015610d215780601f10610cf657610100808354040283529160200191610d21565b820191906000526020600020905b815481529060010190602001808311610d0457829003601f168201915b505050505090806002018054600181600116156101000203166002900480601f016020809104026020016040519081016040528092919081815260200182805460018160011615610100020316600290048015610dbf5780601f10610d9457610100808354040283529160200191610dbf565b820191906000526020600020905b815481529060010190602001808311610da257829003601f168201915b505050505090806003018054600181600116156101000203166002900480601f016020809104026020016040519081016040528092919081815260200182805460018160011615610100020316600290048015610e5d5780601f10610e3257610100808354040283529160200191610e5d565b820191906000526020600020905b815481529060010190602001808311610e4057829003601f168201915b505050505090806004018054600181600116156101000203166002900480601f016020809104026020016040519081016040528092919081815260200182805460018160011615610100020316600290048015610efb5780601f10610ed057610100808354040283529160200191610efb565b820191906000526020600020905b815481529060010190602001808311610ede57829003601f168201915b5050505050905085565b338160008082815260200190815260200160002060009054906101000a900473ffffffffffffffffffffffffffffffffffffffff1673ffffffffffffffffffffffffffffffffffffffff168273ffffffffffffffffffffffffffffffffffffffff161480610fa657508173ffffffffffffffffffffffffffffffffffffffff16610f8e82610a7d565b73ffffffffffffffffffffffffffffffffffffffff16145b80610fe95750610fe860008083815260200190815260200160002060009054906101000a900473ffffffffffffffffffffffffffffffffffffffff1683611dcb565b5b1515610ff457600080fd5b610fff858585612010565b5050505050565b60008060006006600085815260200190815260200160002054111515611094576040517f08c379a00000000000000000000000000000000000000000000000000000000081526004018080602001828103825260148152602001807f53746172206973206e6f7420666f722053616c6500000000000000000000000081525060200191505060405180910390fd5b600660008481526020019081526020016000205491503073ffffffffffffffffffffffffffffffffffffffff16636352211e846040518263ffffffff167c010000000000000000000000000000000000000000000000000000000002815260040180828152602001915050602060405180830381600087803b15801561111957600080fd5b505af115801561112d573d6000803e3d6000fd5b505050506040513d602081101561114357600080fd5b810190808051906020019092919050505090508134101515156111f4576040517f08c379a00000000000000000000000000000000000000000000000000000000081526004018080602001828103825260298152602001807f596f75722071756f74656420616d6f756e74206973206c657373207468616e2081526020017f5374617220436f7374000000000000000000000000000000000000000000000081525060400191505060405180910390fd5b6111fd8361210e565b611208813385612010565b8134111561125a573373ffffffffffffffffffffffffffffffffffffffff166108fc8334039081150290604051600060405180830381858888f19350505050158015611258573d6000803e3d6000fd5b505b8073ffffffffffffffffffffffffffffffffffffffff166108fc839081150290604051600060405180830381858888f193505050501580156112a0573d6000803e3d6000fd5b50505050565b3373ffffffffffffffffffffffffffffffffffffffff163073ffffffffffffffffffffffffffffffffffffffff16636352211e846040518263ffffffff167c010000000000000000000000000000000000000000000000000000000002815260040180828152602001915050602060405180830381600087803b15801561132c57600080fd5b505af1158015611340573d6000803e3d6000fd5b505050506040513d602081101561135657600080fd5b810190808051906020019092919050505073ffffffffffffffffffffffffffffffffffffffff16141515611418576040517f08c379a000000000000000000000000000000000000000000000000000000000815260040180806020018281038252603c8152602001807f526571756972656d656e74204d697373696e673a2053656e646572206d75737481526020017f20626520746865206f776e6572206f662074686520746f6b656e21210000000081525060400191505060405180910390fd5b8060066000848152602001908152602001600020819055505050565b505050565b600080600083815260200190815260200160002060009054906101000a900473ffffffffffffffffffffffffffffffffffffffff169050919050565b60008073ffffffffffffffffffffffffffffffffffffffff168273ffffffffffffffffffffffffffffffffffffffff1614151515611541576040517f08c379a00000000000000000000000000000000000000000000000000000000081526004018080602001828103825260228152602001807f63616e6e6f742061736b206f662062616c616e6365206f66206164647265737381526020017f203000000000000000000000000000000000000000000000000000000000000081525060400191505060405180910390fd5b600160008373ffffffffffffffffffffffffffffffffffffffff1673ffffffffffffffffffffffffffffffffffffffff168152602001908152602001600020549050919050565b600073ffffffffffffffffffffffffffffffffffffffff1660008083815260200190815260200160002060009054906101000a900473ffffffffffffffffffffffffffffffffffffffff1673ffffffffffffffffffffffffffffffffffffffff16141515611684576040517f08c379a000000000000000000000000000000000000000000000000000000000815260040180806020018281038252602a8152602001807f7468697320746f6b656e2062656c6f6e677320746f20736f6d656f6e6520656c81526020017f736520616c72656164790000000000000000000000000000000000000000000081525060400191505060405180910390fd5b3360008083815260200190815260200160002060006101000a81548173ffffffffffffffffffffffffffffffffffffffff021916908373ffffffffffffffffffffffffffffffffffffffff16021790555060018060003373ffffffffffffffffffffffffffffffffffffffff1673ffffffffffffffffffffffffffffffffffffffff16815260200190815260200160002060008282540192505081905550803373ffffffffffffffffffffffffffffffffffffffff16600073ffffffffffffffffffffffffffffffffffffffff167fddf252ad1be2c89b69c2b068fc378daa952ba7f163c4a11628f55a4df523b3ef60405160405180910390a450565b80600360003373ffffffffffffffffffffffffffffffffffffffff1673ffffffffffffffffffffffffffffffffffffffff16815260200190815260200160002060008473ffffffffffffffffffffffffffffffffffffffff1673ffffffffffffffffffffffffffffffffffffffff16815260200190815260200160002060006101000a81548160ff0219169083151502179055508173ffffffffffffffffffffffffffffffffffffffff163373ffffffffffffffffffffffffffffffffffffffff167f17307eab39ab6107e8899845ad3d59bd9653f200f220920489ca2b5937696c3183604051808215151515815260200191505060405180910390a35050565b61188a61217d565b600060a0604051908101604052808981526020018881526020018581526020018781526020018681525091503073ffffffffffffffffffffffffffffffffffffffff1663ff1bba0e8787876040518463ffffffff167c010000000000000000000000000000000000000000000000000000000002815260040180806020018060200180602001848103845287818151815260200191508051906020019080838360005b8381101561194857808201518184015260208101905061192d565b50505050905090810190601f1680156119755780820380516001836020036101000a031916815260200191505b50848103835286818151815260200191508051906020019080838360005b838110156119ae578082015181840152602081019050611993565b50505050905090810190601f1680156119db5780820380516001836020036101000a031916815260200191505b50848103825285818151815260200191508051906020019080838360005b83811015611a145780820151818401526020810190506119f9565b50505050905090810190601f168015611a415780820380516001836020036101000a031916815260200191505b509650505050505050602060405180830381600087803b158015611a6457600080fd5b505af1158015611a78573d6000803e3d6000fd5b505050506040513d6020811015611a8e57600080fd5b8101908080519060200190929190505050151515611b3a576040517f08c379a00000000000000000000000000000000000000000000000000000000081526004018080602001828103825260338152602001807f5468652073746172206973206e6f7420756e697175652c20776f6e277420626581526020017f20616464656420746f206e6574776f726b21210000000000000000000000000081525060400191505060405180910390fd5b8585856040516020018084805190602001908083835b602083101515611b755780518252602082019150602081019050602083039250611b50565b6001836020036101000a03801982511681845116808217855250505050505090500183805190602001908083835b602083101515611bc85780518252602082019150602081019050602083039250611ba3565b6001836020036101000a03801982511681845116808217855250505050505090500182805190602001908083835b602083101515611c1b5780518252602082019150602081019050602083039250611bf6565b6001836020036101000a03801982511681845116808217855250505050505090500193505050506040516020818303038152906040526040518082805190602001908083835b602083101515611c865780518252602082019150602081019050602083039250611c61565b6001836020036101000a03801982511681845116808217855250505050505090500191505060405180910390209050600160046000836000191660001916815260200190815260200160002060006101000a81548160ff02191690831515021790555081600560008581526020019081526020016000206000820151816000019080519060200190611d199291906121ad565b506020820151816001019080519060200190611d369291906121ad565b506040820151816002019080519060200190611d539291906121ad565b506060820151816003019080519060200190611d709291906121ad565b506080820151816004019080519060200190611d8d9291906121ad565b50905050611d9a83611588565b5050505050505050565b5050505050565b60046020528060005260406000206000915054906101000a900460ff1681565b6000600360008473ffffffffffffffffffffffffffffffffffffffff1673ffffffffffffffffffffffffffffffffffffffff16815260200190815260200160002060008373ffffffffffffffffffffffffffffffffffffffff1673ffffffffffffffffffffffffffffffffffffffff16815260200190815260200160002060009054906101000a900460ff16905092915050565b6000808484846040516020018084805190602001908083835b602083101515611e9d5780518252602082019150602081019050602083039250611e78565b6001836020036101000a03801982511681845116808217855250505050505090500183805190602001908083835b602083101515611ef05780518252602082019150602081019050602083039250611ecb565b6001836020036101000a03801982511681845116808217855250505050505090500182805190602001908083835b602083101515611f435780518252602082019150602081019050602083039250611f1e565b6001836020036101000a03801982511681845116808217855250505050505090500193505050506040516020818303038152906040526040518082805190602001908083835b602083101515611fae5780518252602082019150602081019050602083039250611f89565b6001836020036101000a0380198251168184511680821785525050505050509050019150506040518091039020905060046000826000191660001916815260200190815260200160002060009054906101000a900460ff169150509392505050565b8160008083815260200190815260200160002060006101000a81548173ffffffffffffffffffffffffffffffffffffffff021916908373ffffffffffffffffffffffffffffffffffffffff16021790555060018060008573ffffffffffffffffffffffffffffffffffffffff1673ffffffffffffffffffffffffffffffffffffffff16815260200190815260200160002060008282540392505081905550808273ffffffffffffffffffffffffffffffffffffffff168473ffffffffffffffffffffffffffffffffffffffff167fddf252ad1be2c89b69c2b068fc378daa952ba7f163c4a11628f55a4df523b3ef60405160405180910390a4505050565b60006002600083815260200190815260200160002060006101000a81548173ffffffffffffffffffffffffffffffffffffffff021916908373ffffffffffffffffffffffffffffffffffffffff1602179055506000600660008381526020019081526020016000208190555050565b60a06040519081016040528060608152602001606081526020016060815260200160608152602001606081525090565b828054600181600116156101000203166002900490600052602060002090601f016020900481019282601f106121ee57805160ff191683800117855561221c565b8280016001018555821561221c579182015b8281111561221b578251825591602001919060010190612200565b5b509050612229919061222d565b5090565b61224f91905b8082111561224b576000816000905550600101612233565b5090565b905600a165627a7a723058202573bc05a595c9e0240c695b4b15338af8661c7245aeee562bb93736eb09f8c40029",
  "source": "pragma solidity ^0.4.23;\n\nimport \"./ERC721Token.sol\";\n\n// Requirement 1: StarNotary contract must extend ERC721Token \ncontract StarNotary is ERC721Token { \n\n    // Requirement 2: Add metadata to the star token\n    struct Star {\n        string name;\n        string starStory;\n        string ra;\n        string dec;\n        string mag;\n    }\n    \n    mapping(bytes32 => bool) public starsRegistry;\n    mapping(uint256 => Star) public tokenIdToStarInfo;\n    mapping(uint256 => uint256) public starsForSale;\n\n\n    function createStar(string _name, string _story, string _Dec, string _Mag, string _Cent, uint256 _tokenId) public { \n        Star memory newStar = Star(_name, _story, _Cent, _Dec, _Mag);\n\n        // Requirement 3: Uniqueness of the Star check\n        require(!this.checkIfStarIsUnique(_Dec, _Mag, _Cent), \"The star is not unique, won't be added to network!!\");\n        bytes32 starHash = keccak256(abi.encodePacked(_Dec, _Mag, _Cent));\n        starsRegistry[starHash] = true;\n\n        tokenIdToStarInfo[_tokenId] = newStar;\n\n        ERC721Token.mint(_tokenId);\n    }\n\n\n    function checkIfStarIsUnique(string _Dec, string _Mag, string _Cent) public view  returns (bool) {\n        bytes32 starHash = keccak256(abi.encodePacked(_Dec, _Mag, _Cent));\n        return starsRegistry[starHash];\n    }\n\n    function putStarUpForSale(uint256 _tokenId, uint256 _price) public {\n\n        // `require` owner in the token is equal to `msg.sender`\n        require(this.ownerOf(_tokenId) == msg.sender, \"Requirement Missing: Sender must be the owner of the token!!\");\n        starsForSale[_tokenId] = _price;\n    }\n\n    function buyStar(uint256 _tokenId) public payable { \n        require(starsForSale[_tokenId] > 0, \"Star is not for Sale\");\n\n        uint256 starCost = starsForSale[_tokenId];\n        address starOwner = this.ownerOf(_tokenId);\n\n        require(msg.value >= starCost, \"Your quoted amount is less than Star Cost\");\n\n        clearPreviousStarState(_tokenId);\n        transferFromHelper(starOwner, msg.sender, _tokenId);\n\n        if(msg.value > starCost) { \n            msg.sender.transfer(msg.value - starCost);\n        }\n\n        starOwner.transfer(starCost);\n    }\n\n    function clearPreviousStarState(uint256 _tokenId) private {\n        //clear approvals \n        tokenToApproved[_tokenId] = address(0);\n\n        //clear being on sale \n        starsForSale[_tokenId] = 0;\n    }\n}",
  "sourcePath": "/Users/raheel/Downloads/Udacity/Blockchain Developer Nanodegree/Project_5/smart_contracts/contracts/StarNotary.sol",
  "compiler": {
    "name": "solc",
    "version": "0.4.24+commit.e67f0147.Emscripten.clang"
  },
  "schemaVersion": "2.0.1",
  "updatedAt": "2018-12-10T01:47:52.772Z"
}